:100000000C94FF020C941C030C941C030C941C0312
:100010000C941C030C941C030C941C030C941C03E4
:100020000C941C030C941C030C941C030C941C03D4
:100030000C941C030C941C030C941C030C941C03C4
:100040000C941C030C941C030C941C030C941C03B4
:100050000C941C030C941C030C941C030C941C03A4
:100060000C941C030C941C03485454502F312E3014
:1000700020343036204E6F742041636365707461A4
:10008000626C650D0A436F6E74656E742D547970E1
:10009000653A20746578742F68746D6C0D0A0D0ACA
:1000A0003C68313E34303620495020616464722E01
:1000B00020666F726D61742077726F6E673C2F6877
:1000C000313E00485454502F312E302034303420EB
:1000D0004E6F7420466F756E640D0A436F6E7465C3
:1000E0006E742D547970653A20746578742F687435
:1000F0006D6C0D0A0D0A3C68313E343034204E6F71
:100100007420466F756E643C2F68313E004854542D
:10011000502F312E302034303120556E6175746887
:100120006F72697A65640D0A436F6E74656E742D23
:10013000547970653A20746578742F68746D6C0D0D
:100140000A0D0A3C68313E34303120556E617574B9
:10015000686F72697A65643C2F68313E0048545478
:10016000502F312E3020323030204F4B0D0A436F4C
:100170006E74656E742D547970653A207465787468
:100180002F68746D6C0D0A0D0A3C68313E323030B8
:10019000204F4B3C2F68313E003C62723E3C736DF9
:1001A000616C6C3E76657273696F6E20322E3230F0
:1001B0002C2074757867726170686963732E6F7232
:1001C000673C62723E0A000A0A3C612068726566FA
:1001D0003D222E2F223E5B72656672657368207029
:1001E0006167655D3C2F613E0A3C2F7072653E3C45
:1001F00068723E0A000A616E616C6F6720696E70FA
:10020000757420414443313A20000A616E616C6F7D
:100210006720696E70757420414443303A20003184
:100220000030000A6469676974616C20696E7075DA
:1002300074205044313A2000310030000A6469676C
:100240006974616C20696E707574205044303A2076
:10025000006F6666205B3C6120687265663D3F7397
:10026000773D70643726613D313E6368616E676536
:100270003C2F613E5D006F6E20205B3C6120687208
:1002800065663D3F73773D70643726613D303E6360
:1002900068616E67653C2F613E5D000A50443720FF
:1002A0006F75747075743A20006F6666205B3C61F0
:1002B00020687265663D3F73773D70643626613D08
:1002C000313E6368616E67653C2F613E5D006F6E15
:1002D00020205B3C6120687265663D3F73773D700E
:1002E000643626613D303E6368616E67653C2F6110
:1002F0003E5D000A504436206F75747075743A2064
:10030000006F6666205B3C6120687265663D3F73E6
:10031000773D70643526613D313E6368616E676587
:100320003C2F613E5D006F6E20205B3C6120687257
:1003300065663D3F73773D70643526613D303E63B1
:1003400068616E67653C2F613E5D000A5044352050
:100350006F75747075743A20006F6666205B3C613F
:1003600020687265663D3F73773D70643426613D59
:10037000313E6368616E67653C2F613E5D006F6E64
:1003800020205B3C6120687265663D3F73773D705D
:10039000643426613D303E6368616E67653C2F6161
:1003A0003E5D000A504434206F75747075743A20B5
:1003B000003C7072653E003C68323E4C696E6520C0
:1003C0007374617475733A3C2F68323E003C696EF9
:1003D00070757420747970653D7375626D697420F1
:1003E00076616C75653D226C6F67696E223E3C2FAD
:1003F000666F726D3E3C68723E0070617373773A4F
:10040000203C696E70757420747970653D706173FD
:1004100073776F72642073697A653D3132206E6143
:100420006D653D70773E0A003C666F726D206163BA
:1004300074696F6E3D2F206D6574686F643D6765EC
:10044000743E003C7072653E003C68323E4C6F6703
:10045000696E3C2F68323E003C68323E4F4B20496B
:100460005020757064617465642E3C2F68323E20A4
:1004700054616B65206F7574207468206A756D70A7
:10048000657220616E6420706F7765722063796396
:100490006C652E0A003C696E707574207479706505
:1004A0003D7375626D69742076616C75653D22637C
:1004B00068616E6765223E3C2F666F726D3E3C68D8
:1004C000723E003E3C62723E0A006E6577204950E3
:1004D0003A203C696E70757420747970653D74655E
:1004E00078742073697A653D3132206E616D653DA7
:1004F0006E69702076616C75653D003C666F726D4B
:1005000020616374696F6E3D2F69206D6574686F3B
:10051000643D6765743E003C68323E4368616E67C7
:100520006520776562207365727665722049503C5C
:100530002F68323E3C7072653E0A00485454502F7A
:10054000312E3020323030204F4B0D0A436F6E7405
:10055000656E742D547970653A20746578742F68CF
:10056000746D6C0D0A507261676D613A206E6F2D6B
:1005700063616368650D0A0D0A003C68313E3330E3
:1005800031204D6F766564205065726D616E656EC9
:10059000746C793C2F68313E0A002F0D0A436F6E50
:1005A00074656E742D547970653A20746578742F73
:1005B00068746D6C0D0A507261676D613A206E6FE0
:1005C0002D63616368650D0A0D0A00485454502F6D
:1005D000312E3020333031204D6F766564205065E8
:1005E000726D616E656E746C790D0A4C6F63617427
:1005F000696F6E3A20000001080006040001112412
:100600001FBECFEFD4E0DEBFCDBF11E0A0E0B1E070
:10061000ECE4FEE102C005900D92AA32B107D9F7D1
:1006200013E0AAE2B1E001C01D92A13EB107E1F7DB
:100630000E9461050C94240F0C9400009C01F99910
:10064000FECF32BD21BDF89A80B508959C01F9997D
:10065000FECF1FBA32BD21BD60BD0FB6F894FA9A25
:10066000F99A0FBE08958BE291E060E070E04BE3F1
:1006700055E00E94AF0708950F931F938C018BE202
:1006800091E060E070E04BE355E00E94AF07BC01F1
:10069000C80149E454E00E94AF07BC01C80143E42B
:1006A00054E00E94AF07BC01C80148E254E00E9438
:1006B000AF07BC01C8014AEF53E00E94AF07BC017D
:1006C000C8014DEC53E00E94AF071F910F910895B0
:1006D0000F931F938C018BE291E060E070E04BE39D
:1006E00055E00E94AF07BC01C80148E554E00E94F4
:1006F000AF071F910F910895A6E0B0E0E2E8F3E0A4
:100700000C94CF0E6C018BE291E060E070E04BE363
:1007100055E00E94AF07BC01C60147EB53E00E94C1
:10072000AF07BC01C60141EB53E00E94AF07BC011B
:10073000C60143EA53E00E94AF07BC015C9B04C0C2
:10074000C6014EE753E003C0C60149E553E00E94ED
:10075000AF07BC01C6014BE453E00E94AF07BC01E8
:100760005D9B04C0C60146E253E003C0C60141E000
:1007700053E00E94AF07BC01C60143EF52E00E9464
:10078000AF07BC015E9B04C0C6014EEC52E003C043
:10079000C60149EA52E00E94AF07BC01C6014BE91D
:1007A00052E00E94AF07BC015F9B04C0C60146E750
:1007B00052E003C0C60141E552E00E94AF07BC0110
:1007C000C6014CE352E00E94AF07BC01489904C047
:1007D000C6014AE352E003C0C60148E352E00E946A
:1007E000AF07BC01C60143E252E00E94AF07BC0163
:1007F000499904C0C60141E252E003C0C6014FE17D
:1008000052E00E94AF07BC01C6014AE052E00E94DC
:10081000AF077C0180E00E94E50D8E010F5F1F4F46
:10082000B8014AE050E00E948C0EC601B701A80151
:100830000E94C207BC01C60145EF51E00E94AF070C
:100840007C0181E00E94E50DB8014AE050E00E9481
:100850008C0EC601B701A8010E94C207BC01C601E7
:1008600047EC51E00E94AF07BC01C60149E951E0E5
:100870000E94AF072696E8E00C94EB0EAF92BF9271
:10088000CF92DF92EF92FF920F937C018BE291E087
:1008900060E070E04BE355E00E94AF07BC01C70188
:1008A00047E155E00E94AF07BC01C7014BEF54E0A0
:1008B0000E94AF07BC01C7014AEC54E00E94AF0799
:1008C0005C0186EBC82E83E0D82EC60161E171E0A1
:1008D00044E02EE20AE00E94310DC701B501A601F5
:1008E0000E94C207BC01C70143EC54E00E94AF075D
:1008F000BC01C70145E954E00E94AF070F91FF908A
:10090000EF90DF90CF90BF90AF900895CF92DF929D
:10091000EF92FF920F931F938C0160E070E04BEC1D
:1009200055E00E94AF076C0196EBE92E93E0F92E9B
:100930008BE191E0B7010E94A60DC801B601A701A5
:100940000E94C207BC01C8014AE955E00E94AF07F6
:10095000BC01C8014AE755E00E94AF071F910F9103
:10096000FF90EF90DF90CF900895BC01ABE1B1E034
:10097000FD0101900020E9F73197EA1BFB0BCD0147
:10098000AF010E94460E9C0180E0232B09F481E018
:100990000895F999FECF1FBA12BC11BC83E180BD46
:1009A0000FB6F894FA9AF99A0FBE81E090E061E1EF
:1009B00071E044E050E026E233E00E94700E0895BA
:1009C00066EB73E048E120E031E00E94750C88237B
:1009D00081F086EB93E00E94D30C81E191E066EB1D
:1009E00073E00E94620D882321F40E94C90481E013
:1009F000089582E008951F93CF93DF93EC018091D7
:100A00002A01813039F48881893621F4CE010E948F
:100A1000E00451C08881803219F08F3309F04AC058
:100A2000CE0166EB73E048E124E031E00E94750CF2
:100A30008823E1F18091B6038037E1F58091B70317
:100A40008436C1F51091B80310531A3098F5CE01D1
:100A500066EB73E048E127E031E00E94750C8823E3
:100A600011F490E006C090E08091B603813309F460
:100A700091E0173031F4992311F05F9A17C05F9815
:100A80001EC0163031F4992311F05E9A0FC05E98A3
:100A900016C0153031F4992311F05D9A07C05D98A6
:100AA00005C0143019F4992319F05C9A81E003C051
:100AB0005C98FCCF80E0DF91CF911F91089590E08A
:100AC000F0CF1F93CF93DF9380E880936100109263
:100AD000610080E0982F9A95F1F7529853985B9AAD
:100AE00052985A9A982F9A95F1F78A95F1F74A9960
:100AF00003C081E080932A014B990CC0F999FECF85
:100B00001FBA12BC11BC81E080BD0FB6F894FA9AEE
:100B1000F99A0FBE80E08A95F1F7F999FECF12BCE1
:100B200011BCF89A80B5833151F481E191E061E024
:100B300070E044E050E02EE133E00E94540E85E185
:100B400091E00E94970A82E00E94910A10E0812FB2
:100B50008A95F1F70E94DE0D579A5F98569A5E9833
:100B6000559A5D98549A5C985098589A5198599A09
:100B700084E166E774E00E94730A1A95F1F785E153
:100B800091E061E171E040E550E00E94B3068AE83F
:100B900092E06BE271E00E94DE0BBC018BE291E01F
:100BA0000E944009EC01009791F3BC01655D7E4F06
:100BB00089E091E044E050E00E94460E009739F051
:100BC0008BE291E060E070E04DE551E033C0BE01A2
:100BD000615D7E4F8EE091E042E050E00E94460E63
:100BE000009749F480912A01882329F08BE291E053
:100BF0000E943E043DC0CE01805D9E4F0E94FB04DA
:100C00008F3F39F48BE291E060E070E04DE051E01D
:100C100011C0882339F48BE291E060E070E043EC8E
:100C200050E008C0823049F48BE291E060E070E06F
:100C300048E650E00E94AF071BC0843029F48BE2E5
:100C400091E00E943C0314C0833029F48BE291E0D0
:100C50000E9486040DC080912A01882329F08BE22E
:100C600091E00E94680304C08BE291E00E947C0343
:100C7000BC018BE291E00E94390889CFA0E0B0E08E
:100C8000E4E4F6E00C94CF0E6C01413081F468503E
:100C900070407B0100E010E0685F7F4F21E130E0B1
:100CA00040E050E0E20EF31E041F151F15C0423055
:100CB00021F0EE24FF2487010FC0685070407B01B3
:100CC00000E010E0685F7F4F86E090E0A0E0B0E0D9
:100CD000E80EF91E0A1F1B1FF601EB0116C08081EA
:100CE00090E0A0E0B0E0BA2FA92F982F88272181AB
:100CF00030E040E050E0822B932BA42BB52BE80E84
:100D0000F91E0A1F1B1F32962297C230D10538F7F1
:100D1000FB01EE7FEC0DFD1D60FF15C0808190E0B2
:100D2000A0E0B0E0BA2FA92F982F882708C02FEF96
:100D30003FEF40E050E0E222F32204231523E80EC7
:100D4000F91E0A1F1B1FC801AA27BB270097A10570
:100D5000B10569F7970120953095C901CDB7DEB788
:100D6000E8E00C94EB0ECF93DF93EC015093CF03AC
:100D70004093270120E030E0F901E652FC4FDB010F
:100D8000A20FB31F8C9180832F5F3F4F243031051A
:100D900099F720E030E0F901EC52FC4FDE01A20FA0
:100DA000B31F8C9180832F5F3F4F2630310599F719
:100DB000DF91CF910895CF93DF93DC0120E030E005
:100DC000FB01E20FF31FED019A8D8081981711F05E
:100DD00080E007C02F5F3F4F11962430310581F727
:100DE00081E0DF91CF910895FC0169327105B0F087
:100DF0008485883099F48585863081F4DF01969664
:100E0000EAEDF3E09C918081981741F411963196B8
:100E100083E0EE3DF807B1F781E0089580E00895A2
:100E2000CF93DF93FC016A327105C8F08485883066
:100E3000B1F48585882399F48685853481F4DF01B2
:100E4000EAEDF3E0ED019E8D8081981741F4119653
:100E5000319683E0EE3DF807A9F781E001C080E01C
:100E6000DF91CF910895FC01A4EDB3E086818083EA
:100E70008D918683319683E0AA3DB807B9F708952E
:100E80000F931F938C01FC01108E118E80E4848BD4
:100E9000158A868BC8010E9664E170E040E00E94DE
:100EA0003E06F801908F818F1F910F910895AC013C
:100EB000FC01AAEDB3E0828D868F8D91828F3196F1
:100EC00083E0AE3DB807B9F7CA010E944007089514
:100ED000FC01B99694E08081680F711D8481648360
:100EE000442311F0808301C01082915031979923DF
:100EF00019F0672F7727EFCF08950F931F938C0179
:100F0000FC0194A182A184A392A395A183A185A3AE
:100F100093A3C8010E946807F80112AA13AA80E5EA
:100F200086A71F910F910895FC01908980E0218987
:100F3000422F50E0482B592B26A5822F82958F7087
:100F400090E0880F991F880F991F481B590B445137
:100F5000504057FF02C040E050E0CA0108956A5C6B
:100F60007F4FDC01A60FB71F6653704003C08D93FF
:100F70006F5F7F4FFA014F5F5F4F84918823B9F70E
:100F8000CB010895FA016A5C7F4FDC01A60FB71F01
:100F90006653704004C08D936F5F7F4F31963097DA
:100FA00019F080818823B9F7CB0108959093D3037A
:100FB0008093D2030895EF92FF920F931F938C01B9
:100FC0007B01CB018896F801908B818BC8010E9430
:100FD0004007F80112AA13AA8CE190E0E80EF91E6E
:100FE000C8014A96B70142E00E943E06F80192AB62
:100FF00083ABC7014A96B8010E94660B1F910F91FF
:10100000FF90EF900895CF93DF93EC01FC01A4EDE6
:10101000B3E0868180838D918683319683E0AA3DFB
:10102000B807B9F740614FA76115710521F4CE01EA
:1010300061E070E001C0CE0141E00E947D07188AA6
:1010400088E2898BCE010E94570784E088AB19AAF9
:10105000CE014A966CE170E042E00E943E069AABF7
:101060008BAB86E390E0BE010E94660BDF91CF91CF
:101070000895EF92FF920F931F938C017B01609173
:10108000D0037091D10340E00E94030889E1F80188
:1010900087A7C801B7010E94DB071F910F91FF903E
:1010A000EF900895CF93DF93EC01FC01A4EDB3E042
:1010B000868180838D918683319683E0AA3DB8072F
:1010C000B9F7188A8CE2898BCE010E94570782E11A
:1010D0008FA7CE0161E070E040E00E947D071EA274
:1010E0001FA28091280188A719A68D5F80932801EF
:1010F00082E08EAB84E08FAB95E098AF19AE80E6CE
:101100008EA798AB88E789ABCE014A9660E270E083
:1011100042E00E943E069AAB8BAB8AE390E0BE01B0
:101120000E94660BDF91CF910895A0E0B0E0EBE95B
:10113000F8E00C94D00EEC017B01D22E132FFC01B1
:10114000A4EDB3E0868180838D918683319683E020
:10115000AA3DB807B9F7042F4D3D08F00CED188AE9
:10116000045E098BCE010E9457078AA18CA38BA134
:101170008DA31AA3DBA21EA204510FA3085018A628
:1011800019A6DE019A9620E030E007C0F701E20FD1
:10119000F31F80818D932F5F3F4F2017B8F310E02E
:1011A000005F1F4FCE014A96B80141E00E943E0603
:1011B00098A789A7C8014A96BE010E94660BCDB7C1
:1011C000DEB7E7E00C94EC0E0F931F93CF93DF9301
:1011D000EC018B01FC01A4EDB3E0868180838D914D
:1011E0008683319683E0AA3DB807B9F7CE010E9405
:1011F00057071AA28CA1883F18F08DA18F5F8DA38D
:101200008CA1885F8CA3C801BE010E94660BDF9190
:10121000CF911F910F910895CF93DF93AC01EC0113
:1012200024ED33E0FC01D901868180838D91868392
:10123000319683E0AA3DB807B9F7FA01148A82E033
:10124000858B8E8988A3F90181919F018E8B2196D0
:10125000F3E02A3D3F07A9F7FA017C96AAEDB3E037
:10126000808182878D91819383E0AE3DB807C1F77D
:101270008AE290E0BA010E94660BDF91CF91089557
:101280000F931F93CF93DF93EC018B010E94F40621
:10129000882341F08D89813009F067C0CE010E941A
:1012A0000C0963C0CE01B8010E941007882309F41D
:1012B0005CC09F89913089F48AA1883071F4E091F3
:1012C000D203F091D303309719F0CE014A960995D5
:1012D000CE01B8010E94E40848C00633110518F495
:1012E000963009F042C09CA18091CF039817E9F590
:1012F0009DA1809127019817C1F58FA5682F81FFC7
:1013000004C0CE010E94520830C084FF2EC09889CC
:1013100080E0298930E0282B392B8EA582958F70AB
:10132000482F50E0CA01880F991F880F991F281B6A
:10133000390B2451304037FF02C020E030E03093B9
:10134000D1032093D003232B41F09A01220F331FA6
:10135000220F331F2E5D3F4F0AC060FF06C0CE0133
:1013600060E070E040E00E94030820E030E0C90146
:10137000DF91CF911F910F9108952A98962F9F7119
:10138000982B9EBD0DB407FEFDCF1EBC0DB407FE0D
:10139000FDCF67FF04C01EBC0DB407FEFDCF2A9A27
:1013A0008EB508952A986F71682B6EBD0DB407FE37
:1013B000FDCF4EBD0DB407FEFDCF2A9A0895AC01B6
:1013C000FB012A988AE38EBD0DB407FEFDCF9A017A
:1013D000DF0108C01EBC0DB407FEFDCF2150304018
:1013E0008EB58D9321153105A9F7E40FF51F1082F5
:1013F0002A9A08959C01FB012A988AE78EBD0DB4B4
:1014000007FEFDCF08C080818EBD0DB407FEFDCF65
:1014100021503040319621153105A9F72A9A0895B7
:10142000482F282F30E0207630708091DE0390E046
:1014300028173907F9F02A988FEB8EBD0DB407FEF7
:10144000FDCF83E08EBD0DB407FEFDCF2A9A2A980A
:101450008FE98EBD0DB407FEFDCF85E0359527954C
:101460008A95E1F72EBD0DB407FEFDCF2A9A40768E
:101470004093DE0308951F93182F0E94100A80E006
:10148000612F0E94BD091F9108950F931F93182F7C
:10149000062F0E94100A2A981F7110641EBD0DB4F9
:1014A00007FEFDCF0EBD0DB407FEFDCF2A9A1F919A
:1014B0000F910895682F84ED0E94450A82ED61E046
:1014C0000E94450A8EE38A95F1F78AEE0E943B0A54
:1014D00080FDFBCF82ED60E00E94450A89ED0E940D
:1014E0003B0A90E008950F931F93982F162F072F14
:1014F00084ED692F0E94450A86ED612F0E94450AFE
:1015000087ED602F0E94450A1EE303C0812F8A9554
:10151000F1F78AEE0E943B0A80FDF8CF1F910F91F0
:101520000895682F677085E70E94450A0895CF9354
:10153000DF93EC01229A2A9A84B1886284B9249AB2
:101540002B9A2D9A80E58CBD8DB581608DBD2A9832
:101550008FEF8EBD0DB407FEFDCF8FEF8EBD0DB4A6
:1015600007FEFDCF2A9A8DEC8A95F1F71092E003E1
:101570001092DF0388E060E00E94450A89E060E0A5
:101580000E94450A8CE060E00E94450A8DE060E020
:101590000E94450A8AE06EEF0E94450A8BE069E1ED
:1015A0000E94450A84E06FEF0E94450A85E069E1E8
:1015B0000E94450A86E06FEF0E94450A87E06FE1CE
:1015C0000E94450A88E360EB0E94450A88E26FE3C7
:1015D0000E94450A89E260E30E94450A80E369EFC0
:1015E0000E94450A81E367EF0E94450A80EC6DE0A6
:1015F0000E94450A81EC60E00E94450A2A9882E830
:101600008EBD0DB407FEFDCF82E38EBD0DB407FE87
:10161000FDCF2A9A86EC62E10E94450A87EC6CE0D5
:101620000E94450A84EC62E10E94450A8AEC6CED56
:101630000E94450A8BEC65E00E94450A84EE6881B1
:101640000E94450A85EE69810E94450A82EE6A8100
:101650000E94450A83EE6B810E94450A80EE6C81F0
:101660000E94450A81EE6D810E94450A80E160E09A
:1016700071E00E94730A8FE10E94100A2A988BE998
:101680008EBD0DB407FEFDCF80EC8EBD0DB407FE00
:10169000FDCF2A9A2A988FE98EBD0DB407FEFDCFA3
:1016A00084E08EBD0DB407FEFDCF2A9ADF91CF9165
:1016B000089582E70E943B0A089581E10E945A0A38
:1016C00020E0892B09F021E0822F0895A0E0B0E00E
:1016D000ECE6FBE00C94D00EEC018B013FE9D32E3D
:1016E00020E8F22E9FEBE92E19C08CE10E943B0A04
:1016F00081FF14C02A98DEBC0DB407FEFDCFFEBCEE
:101700000DB407FEFDCF2A9A2A98EEBC0DB407FE51
:10171000FDCFFEBC0DB407FEFDCF2A9A80E06FE13D
:101720000E94BD0983FDE1CF82E06FEF0E94450A70
:1017300083E069E10E94450ACE018150682F86E06E
:101740000E94450A9E012150364E87E0632F0E9479
:10175000450A2A988AE78EBD0DB407FEFDCF1EBC50
:101760000DB407FEFDCF2A9A2A988AE78EBD0DB4E4
:1017700007FEFDCF09C0F80180818EBD0DB407FEC4
:10178000FDCF21970F5F1F4F2097A9F72A9A2A981C
:101790008FE98EBD0DB407FEFDCF88E08EBD0DB480
:1017A00007FEFDCF2A9ACDB7DEB7E7E00C94EC0E2A
:1017B00089E30E943B0A811181E00895A0E0B0E036
:1017C000E4EEFBE00C94CB0E5C014B0189E30E943C
:1017D0003B0A882319F4C0E0D0E081C00091DF0308
:1017E0001091E00380E0602F0E94450A012F110F45
:1017F000110B81E0602F0E94450A8AE360E00E949D
:10180000BD09182F8AE360E00E94BD09382F20E04F
:10181000E12EFF24E22AF32AF092E003E092DF03B4
:101820008AE360E00E94BD09C82E8AE360E00E945E
:10183000BD09D82E8AE360E00E94BD09082F10E0A0
:101840008AE360E00E94BD09382F20E0202B312B75
:1018500027FD03C0C0E0D0E011C0CC2DD0E09D2D0D
:1018600080E0C82BD92BC501019724978C179D07C1
:1018700008F4EC01CE01B4010E94DF098CE06E2D6A
:101880000E94450A6F2D772767FD7A958DE00E94AB
:10189000450A87010150104089E10F3F180738F0D1
:1018A0008CE06EEF0E94450A8DE069E10AC06E2D62
:1018B00061508CE00E94450A612F772767FD7A9579
:1018C0008DE00E94450A2A988EE98EBD0DB407FE70
:1018D000FDCF80E48EBD0DB407FEFDCF2A9ACE0168
:1018E000CDB7DEB7ECE00C94E70ECF93DF93DC01CD
:1018F000EB01722F632F822F932F9C01F90150E08F
:1019000016C08081981771F431968081882371F414
:1019100011968C918D3331F4872F962F9C01F9010C
:1019200051E004C0872F962F9C01F90111969C91DC
:10193000992339F0903229F09A3019F0552309F3A0
:1019400004C0513011F030E018C06A2F50E041500F
:10195000504002C0299311963A2F361B2C91222316
:1019600059F0203249F02A3039F0263229F0832FFD
:1019700090E08417950774F31882832FDF91CF913D
:101980000895982F80538A3068F08153863010F480
:10199000865F0895892F8154863010F080E0089585
:1019A000892F87530895CF93DF93DC01EC0136C074
:1019B0008B3211F480E230C0853271F5FD01319631
:1019C000DF0111969081392F30533A3070F0892F12
:1019D0008156863010F4375208C0892F81548630E2
:1019E00010F030E002C0392F37532181922F9053ED
:1019F0009A3070F0822F8156863010F4975208C0CA
:101A0000822F8154863010F090E002C0922F9753BD
:101A1000832F8295807F892B899311968C918823BF
:101A200039F61882DF91CF910895382FFB01282FC6
:101A30002F70205D21832053992787FD90958F700B
:101A400090700A9714F0295A2183832F82958F7002
:101A5000805D808380538A3014F0895A808312829B
:101A60000895A0E0B0E0E7E3FDE00C94CE0E7C0129
:101A7000B42EC22ED02EEB0100E010E017C0B7014B
:101A8000610F711D888190E04D2D50E00E948C0EF9
:101A900001C0192FF701E10FF11D8081912F9F5F88
:101AA0008823B9F7C082192F0F5F21960B1538F3E1
:101AB0001150E10EF11CF7011082CDB7DEB7E9E05D
:101AC0000C94EA0EEF92FF921F93CF93DF937C0169
:101AD000EB0180E090E0F701E80FF91F108201961A
:101AE00084309105C1F720E030E010E019C02115E5
:101AF000310541F4842F992787FD9095C0970A9767
:101B000008F49E014E3259F41882C9010E94280E31
:101B1000F701E10FF11D80831F5F20E030E0219687
:101B20004881442311F0143010F31882133011F05F
:101B300081E006C0C9010E94280EF701838380E07E
:101B4000DF91CF911F91FF90EF900895A0E0B0E05A
:101B5000ECEAFDE00C94CF0EEB017C010894E11C53
:101B6000F11C95E2C92E1CC080E2D81619F48BE254
:101B7000D82E08C08D2D992787FD90950E94FC0EC8
:101B8000892B11F0D99209C0FE01C1928F018D2DD0
:101B9000BF010E94150DE80122960894E11CF11C7A
:101BA000F701D2907F010894E11CF11CDD20E1F6E1
:101BB0001882CDB7DEB7E8E00C94EB0E80EC809392
:101BC0007C0087E880937A000895282F8F70806CBE
:101BD00080937C0087E880937A00263050F481E07F
:101BE00090E002C0880F991F2A95E2F78F718093C9
:101BF0007E0080917A00806480937A0080917A00E0
:101C000086FDFCCF9091780050917900E5E3FCE0EF
:101C10003197F1F780917A00806480937A00809107
:101C20007A0086FDFCCF4091780060917900352FD5
:101C300020E0892F90E0282B392B962F80E050E070
:101C4000482B592B420F531F56954795CA010895AB
:101C5000FC0188279927E89421912032E9F3293063
:101C600010F02E30C8F32B3241F02D3239F4689445
:101C700004C00E94AD0E820F911D219120532A3085
:101C8000C0F31EF4909581959F4F0895FB01DC01F0
:101C90004150504030F08D910190801919F400208E
:101CA000B9F7881B990B0895A0E0B0E0EAE5FEE0E3
:101CB0000C94CF0E7C01EB018A01690109C0CE01B1
:101CC0002196F6010995F70181937F01015010409B
:101CD00001151105A1F7CDB7DEB7E8E00C94EB0EC6
:101CE000A0E0B0E0E6E7FEE00C94CF0EEC017B0153
:101CF0008A01690109C0CE012196F70161917F0136
:101D0000F60109950150104001151105A1F7CDB755
:101D1000DEB7E8E00C94EB0EFB019F01E894423043
:101D2000C4F04532B4F44A3029F497FB1EF4909580
:101D300081959F4F642F77270E94100F805D8A3313
:101D40000CF0895D8193CB010097A1F716F45DE259
:101D500051931082C9010C94B50E7AE0979F902D93
:101D6000879F802D910D11240895DC01FC01672FC0
:101D700071917723E1F7329704C07C916D93708362
:101D80006291AE17BF07C8F308952F923F924F920A
:101D90005F926F927F928F929F92AF92BF92CF92FB
:101DA000DF92EF92FF920F931F93CF93DF93CDB704
:101DB000DEB7CA1BDB0B0FB6F894DEBF0FBECDBF7C
:101DC00009942A88398848885F846E847D848C844D
:101DD0009B84AA84B984C884DF80EE80FD800C8156
:101DE0001B81AA81B981CE0FD11D0FB6F894DEBF39
:101DF0000FBECDBFED010895911106C080538A50EA
:101E000010F0865C06C0089599278827089585FDFF
:101E1000FBCF80629111F8CF81568A51E0F7089587
:101E2000AA1BBB1B51E107C0AA1FBB1FA617B70700
:101E300010F0A61BB70B881F991F5A95A9F780951C
:0C1E40009095BC01CD010895F894FFCFEF
:101E4C006E697000737700610047455420002F20A5
:101E5C00000A00001D5455581000307365637265FC
:0A1E6C0074000000000000500A009E
:00000001FF
